:1000000075900D30A04530A14630A24730A3487509
:10001000900B30A04630A14830A24A30A34C7590D6
:100020000730A04B30A14D30A24F30A37875900E11
:1000300030A00830A10930A30E01007E7E01A97E08
:100040007101A97E6401A97E5F01A97E5501A97E87
:100050004B01A97E4301A97E3F01A97580080100DB
:10006000758009010075800A010075800B0100751B
:10007000800C010075800D010075808011C811C8C9
:1000800011C811C875804011C875800011C87580ED
:100090004011C875800011C875802011C811C811A1
:1000A000C811C801797E7E01B3C2A611BDD2A611C6
:1000B000BD0100C2A611BDD2A611BD01B38EF07F55
:1000C00006DFFEDEFAAEF0227D027EFA7FC8DFFE9A
:0500D000DEFADDF6225E
:00000001FF
